{
  "_format": "hh-sol-artifact-1",
  "contractName": "Ballot",
  "sourceName": "contracts/Ballot.sol",
  "abi": [
    {
      "inputs": [
        {
          "internalType": "string[]",
          "name": "proposalNames",
          "type": "string[]"
        },
        {
          "internalType": "uint256",
          "name": "_votingPeriodInMinutes",
          "type": "uint256"
        }
      ],
      "stateMutability": "nonpayable",
      "type": "constructor"
    },
    {
      "inputs": [],
      "name": "AlreadyRevealed",
      "type": "error"
    },
    {
      "inputs": [],
      "name": "AlreadyVoted",
      "type": "error"
    },
    {
      "inputs": [],
      "name": "CannotDelegateToYourself",
      "type": "error"
    },
    {
      "inputs": [],
      "name": "HasNoRightToVote",
      "type": "error"
    },
    {
      "inputs": [],
      "name": "InvalidVote",
      "type": "error"
    },
    {
      "inputs": [
        {
          "internalType": "address",
          "name": "owner",
          "type": "address"
        }
      ],
      "name": "OwnableInvalidOwner",
      "type": "error"
    },
    {
      "inputs": [
        {
          "internalType": "address",
          "name": "account",
          "type": "address"
        }
      ],
      "name": "OwnableUnauthorizedAccount",
      "type": "error"
    },
    {
      "inputs": [],
      "name": "ProposalDoesNotExist",
      "type": "error"
    },
    {
      "inputs": [],
      "name": "VotingEnded",
      "type": "error"
    },
    {
      "inputs": [],
      "name": "VotingNotEnded",
      "type": "error"
    },
    {
      "inputs": [],
      "name": "VotingNotStarted",
      "type": "error"
    },
    {
      "anonymous": false,
      "inputs": [
        {
          "indexed": true,
          "internalType": "address",
          "name": "voter",
          "type": "address"
        }
      ],
      "name": "AbilityToVote",
      "type": "event"
    },
    {
      "anonymous": false,
      "inputs": [
        {
          "indexed": true,
          "internalType": "address",
          "name": "previousOwner",
          "type": "address"
        },
        {
          "indexed": true,
          "internalType": "address",
          "name": "newOwner",
          "type": "address"
        }
      ],
      "name": "OwnershipTransferred",
      "type": "event"
    },
    {
      "anonymous": false,
      "inputs": [
        {
          "indexed": true,
          "internalType": "address",
          "name": "voter",
          "type": "address"
        },
        {
          "indexed": true,
          "internalType": "bytes32",
          "name": "hash",
          "type": "bytes32"
        }
      ],
      "name": "VoteCommitted",
      "type": "event"
    },
    {
      "anonymous": false,
      "inputs": [
        {
          "indexed": true,
          "internalType": "address",
          "name": "voter",
          "type": "address"
        },
        {
          "indexed": false,
          "internalType": "bytes32",
          "name": "voteHash",
          "type": "bytes32"
        }
      ],
      "name": "VoteRevealed",
      "type": "event"
    },
    {
      "anonymous": false,
      "inputs": [
        {
          "indexed": false,
          "internalType": "bytes32",
          "name": "newWinnerHash",
          "type": "bytes32"
        }
      ],
      "name": "WinnerUpdated",
      "type": "event"
    },
    {
      "inputs": [
        {
          "internalType": "address",
          "name": "voter",
          "type": "address"
        }
      ],
      "name": "abilityToVote",
      "outputs": [],
      "stateMutability": "nonpayable",
      "type": "function"
    },
    {
      "inputs": [],
      "name": "chairman",
      "outputs": [
        {
          "internalType": "address",
          "name": "",
          "type": "address"
        }
      ],
      "stateMutability": "view",
      "type": "function"
    },
    {
      "inputs": [
        {
          "internalType": "address",
          "name": "delegateAddress",
          "type": "address"
        }
      ],
      "name": "delegate",
      "outputs": [],
      "stateMutability": "nonpayable",
      "type": "function"
    },
    {
      "inputs": [],
      "name": "owner",
      "outputs": [
        {
          "internalType": "address",
          "name": "",
          "type": "address"
        }
      ],
      "stateMutability": "view",
      "type": "function"
    },
    {
      "inputs": [
        {
          "internalType": "uint256",
          "name": "",
          "type": "uint256"
        }
      ],
      "name": "proposals",
      "outputs": [
        {
          "internalType": "string",
          "name": "name",
          "type": "string"
        },
        {
          "internalType": "uint256",
          "name": "voteCount",
          "type": "uint256"
        }
      ],
      "stateMutability": "view",
      "type": "function"
    },
    {
      "inputs": [],
      "name": "renounceOwnership",
      "outputs": [],
      "stateMutability": "nonpayable",
      "type": "function"
    },
    {
      "inputs": [
        {
          "internalType": "uint8",
          "name": "_votedProposalIndex",
          "type": "uint8"
        },
        {
          "internalType": "string",
          "name": "_salt",
          "type": "string"
        }
      ],
      "name": "reveal",
      "outputs": [],
      "stateMutability": "nonpayable",
      "type": "function"
    },
    {
      "inputs": [
        {
          "internalType": "address",
          "name": "newOwner",
          "type": "address"
        }
      ],
      "name": "transferOwnership",
      "outputs": [],
      "stateMutability": "nonpayable",
      "type": "function"
    },
    {
      "inputs": [
        {
          "internalType": "bytes32",
          "name": "_hashedVotedProposalIndex",
          "type": "bytes32"
        }
      ],
      "name": "vote",
      "outputs": [],
      "stateMutability": "nonpayable",
      "type": "function"
    },
    {
      "inputs": [
        {
          "internalType": "address",
          "name": "",
          "type": "address"
        }
      ],
      "name": "voters",
      "outputs": [
        {
          "internalType": "bool",
          "name": "hasVoted",
          "type": "bool"
        },
        {
          "internalType": "bool",
          "name": "revealed",
          "type": "bool"
        },
        {
          "internalType": "address",
          "name": "delegate",
          "type": "address"
        },
        {
          "internalType": "uint256",
          "name": "weight",
          "type": "uint256"
        },
        {
          "internalType": "bytes32",
          "name": "hashedVotedProposalIndex",
          "type": "bytes32"
        }
      ],
      "stateMutability": "view",
      "type": "function"
    },
    {
      "inputs": [],
      "name": "votingEnd",
      "outputs": [
        {
          "internalType": "uint256",
          "name": "",
          "type": "uint256"
        }
      ],
      "stateMutability": "view",
      "type": "function"
    },
    {
      "inputs": [],
      "name": "votingStart",
      "outputs": [
        {
          "internalType": "uint256",
          "name": "",
          "type": "uint256"
        }
      ],
      "stateMutability": "view",
      "type": "function"
    },
    {
      "inputs": [],
      "name": "winnerProposalName",
      "outputs": [
        {
          "internalType": "string",
          "name": "winnerName",
          "type": "string"
        }
      ],
      "stateMutability": "view",
      "type": "function"
    }
  ],
  "bytecode": "0x60c06040526001805460ff60a01b19169055600060025534801561002257600080fd5b50604051611309380380611309833981016040819052610041916101cc565b338061006757604051631e4fbdf760e01b81526000600482015260240160405180910390fd5b61007081610136565b50600180546001600160a01b03191633908117825560009081526004602052604081208201919091555b825181101561010e57600360405180604001604052808584815181106100c2576100c261031d565b602090810291909101810151825260009181018290528354600181018555938252902081519192600202019081906100fa90826103bc565b50602091909101516001918201550161009a565b504260805261011e81603c610490565b60805161012b91906104ad565b60a052506104c09050565b600080546001600160a01b038381166001600160a01b0319831681178455604051919092169283917f8be0079c531659141344cd1fd0a4f28419497f9722a3daafe3b4186f6b6457e09190a35050565b634e487b7160e01b600052604160045260246000fd5b604051601f8201601f191681016001600160401b03811182821017156101c4576101c4610186565b604052919050565b600080604083850312156101df57600080fd5b82516001600160401b038111156101f557600080fd5b8301601f8101851361020657600080fd5b80516001600160401b0381111561021f5761021f610186565b8060051b61022f6020820161019c565b9182526020818401810192908101908884111561024b57600080fd5b6020850192505b838310156103095782516001600160401b0381111561027057600080fd5b8501603f81018a1361028157600080fd5b60208101516001600160401b0381111561029d5761029d610186565b6102b0601f8201601f191660200161019c565b8181526040838301018c10156102c557600080fd5b60005b828110156102e857808401604001516020838301810191909152016102c8565b50600060208383010152808552505050602082019150602083019250610252565b602097909701519698969750505050505050565b634e487b7160e01b600052603260045260246000fd5b600181811c9082168061034757607f821691505b60208210810361036757634e487b7160e01b600052602260045260246000fd5b50919050565b601f8211156103b757806000526020600020601f840160051c810160208510156103945750805b601f840160051c820191505b818110156103b457600081556001016103a0565b50505b505050565b81516001600160401b038111156103d5576103d5610186565b6103e9816103e38454610333565b8461036d565b6020601f82116001811461041d57600083156104055750848201515b600019600385901b1c1916600184901b1784556103b4565b600084815260208120601f198516915b8281101561044d578785015182556020948501946001909201910161042d565b508482101561046b5786840151600019600387901b60f8161c191681555b50505050600190811b01905550565b634e487b7160e01b600052601160045260246000fd5b80820281158282048414176104a7576104a761047a565b92915050565b808201808211156104a7576104a761047a565b60805160a051610e086105016000396000818161016801528181610552015281816106c5015261077c01526000818161010301526106850152610e086000f3fe608060405234801561001057600080fd5b50600436106100cf5760003560e01c806387f7b9751161008c578063a3ec138d11610066578063a3ec138d146101db578063a69beaba1461025e578063ca3ed9e814610271578063f2fde38b1461028457600080fd5b806387f7b9751461018a5780638da5cb5b146101b5578063a0f2c291146101c657600080fd5b8063013cf08b146100d4578063101158af146100fe5780635c19a95c14610133578063715018a61461014857806374aeb9d31461015057806385a3863514610163575b600080fd5b6100e76100e2366004610bc8565b610297565b6040516100f5929190610c31565b60405180910390f35b6101257f000000000000000000000000000000000000000000000000000000000000000081565b6040519081526020016100f5565b610146610141366004610c53565b610353565b005b610146610477565b61014661015e366004610c53565b61048b565b6101257f000000000000000000000000000000000000000000000000000000000000000081565b60015461019d906001600160a01b031681565b6040516001600160a01b0390911681526020016100f5565b6000546001600160a01b031661019d565b6101ce61054e565b6040516100f59190610c83565b6102266101e9366004610c53565b60046020526000908152604090208054600182015460029092015460ff808316936101008404909116926201000090046001600160a01b03169185565b60408051951515865293151560208601526001600160a01b03909216928401929092526060830191909152608082015260a0016100f5565b61014661026c366004610bc8565b610651565b61014661027f366004610c96565b61076b565b610146610292366004610c53565b61099c565b600381815481106102a757600080fd5b90600052602060002090600202016000915090508060000180546102ca90610d23565b80601f01602080910402602001604051908101604052809291908181526020018280546102f690610d23565b80156103435780601f1061031857610100808354040283529160200191610343565b820191906000526020600020905b81548152906001019060200180831161032657829003601f168201915b5050505050908060010154905082565b336000908152600460205260409020805460ff161561038557604051637c9a1cf960e01b815260040160405180910390fd5b336001600160a01b038316036103ae5760405163d99eaebb60e01b815260040160405180910390fd5b6001600160a01b03828116600090815260046020526040902054620100009004161561041d576001600160a01b03918216600090815260046020526040902054620100009004909116903382036104185760405163d99eaebb60e01b815260040160405180910390fd5b6103ae565b80546001600160a01b03831662010000810261ff01600160b01b0319909216919091176001908117835560009182526004602052604082208382015491810180549193909161046d908490610d5d565b9091555050505050565b61047f6109df565b6104896000610a0c565b565b6104936109df565b6001600160a01b03811660009081526004602052604090205460ff16156104cd57604051637c9a1cf960e01b815260040160405180910390fd5b6001600160a01b0381166000908152600460205260409020600101541561050757604051637c9a1cf960e01b815260040160405180910390fd5b6001600160a01b038116600081815260046020526040808220600190810155517f47f0fb216470bea0f7d7b8de4f74db8d891504961b935064784797640658c2309190a250565b60607f0000000000000000000000000000000000000000000000000000000000000000421161059057604051633fc30bd160e11b815260040160405180910390fd5b600154600380549091600160a01b900460ff169081106105b2576105b2610d7e565b906000526020600020906002020160000180546105ce90610d23565b80601f01602080910402602001604051908101604052809291908181526020018280546105fa90610d23565b80156106475780601f1061061c57610100808354040283529160200191610647565b820191906000526020600020905b81548152906001019060200180831161062a57829003601f168201915b5050505050905090565b336000908152600460205260409020805460ff161561068357604051637c9a1cf960e01b815260040160405180910390fd5b7f000000000000000000000000000000000000000000000000000000000000000042116106c357604051633fd0090160e11b815260040160405180910390fd5b7f0000000000000000000000000000000000000000000000000000000000000000421061070357604051637a19ed0560e01b815260040160405180910390fd5b600081600101541161072857604051639a6d05dd60e01b815260040160405180910390fd5b805460ff1916600117815560028101829055604051829033907f378881b5d2d0f50f0782bfc28c9194fbce3515be77236885f5256babb2e45c3390600090a35050565b3360009081526004602052604090207f000000000000000000000000000000000000000000000000000000000000000042116107ba57604051633fc30bd160e11b815260040160405180910390fd5b60035460ff8516106107df57604051636ce3c70160e11b815260040160405180910390fd5b60006107ed8560ff16610a5c565b848460405160200161080193929190610d94565b60408051808303601f1901815291905280516020909101208254909150610100900460ff16156108445760405163a89ac15160e01b815260040160405180910390fd5b8082600201541461086857604051636aee863360e11b815260040160405180910390fd5b815461ff00191661010017825560018201546003805460ff881690811061089157610891610d7e565b906000526020600020906002020160010160008282546108b19190610d5d565b90915550506002546003805460ff88169081106108d0576108d0610d7e565b90600052602060002090600202016001015411156109605760038560ff16815481106108fe576108fe610d7e565b6000918252602091829020600291820201600190810154909155805460ff60a01b1916600160a01b60ff8916021790556040518281527f3487dbf8f148196c91a951cc2693a2193bf4570cccb22e0904bc79a93c9ab7ad910160405180910390a15b60405181815233907f694ab418676341855f1673815507bb86f789050ac5d21aa2810e39c93f1cd6e29060200160405180910390a25050505050565b6109a46109df565b6001600160a01b0381166109d357604051631e4fbdf760e01b8152600060048201526024015b60405180910390fd5b6109dc81610a0c565b50565b6000546001600160a01b031633146104895760405163118cdaa760e01b81523360048201526024016109ca565b600080546001600160a01b038381166001600160a01b0319831681178455604051919092169283917f8be0079c531659141344cd1fd0a4f28419497f9722a3daafe3b4186f6b6457e09190a35050565b60606000610a6983610aef565b600101905060008167ffffffffffffffff811115610a8957610a89610dbc565b6040519080825280601f01601f191660200182016040528015610ab3576020820181803683370190505b5090508181016020015b600019016f181899199a1a9b1b9c1cb0b131b232b360811b600a86061a8153600a8504945084610abd57509392505050565b60008072184f03e93ff9f4daa797ed6e38ed64bf6a1f0160401b8310610b2e5772184f03e93ff9f4daa797ed6e38ed64bf6a1f0160401b830492506040015b6d04ee2d6d415b85acef81000000008310610b5a576d04ee2d6d415b85acef8100000000830492506020015b662386f26fc100008310610b7857662386f26fc10000830492506010015b6305f5e1008310610b90576305f5e100830492506008015b6127108310610ba457612710830492506004015b60648310610bb6576064830492506002015b600a8310610bc2576001015b92915050565b600060208284031215610bda57600080fd5b5035919050565b60005b83811015610bfc578181015183820152602001610be4565b50506000910152565b60008151808452610c1d816020860160208601610be1565b601f01601f19169290920160200192915050565b604081526000610c446040830185610c05565b90508260208301529392505050565b600060208284031215610c6557600080fd5b81356001600160a01b0381168114610c7c57600080fd5b9392505050565b602081526000610c7c6020830184610c05565b600080600060408486031215610cab57600080fd5b833560ff81168114610cbc57600080fd5b9250602084013567ffffffffffffffff811115610cd857600080fd5b8401601f81018613610ce957600080fd5b803567ffffffffffffffff811115610d0057600080fd5b866020828401011115610d1257600080fd5b939660209190910195509293505050565b600181811c90821680610d3757607f821691505b602082108103610d5757634e487b7160e01b600052602260045260246000fd5b50919050565b80820180821115610bc257634e487b7160e01b600052601160045260246000fd5b634e487b7160e01b600052603260045260246000fd5b60008451610da6818460208901610be1565b8201838582376000930192835250909392505050565b634e487b7160e01b600052604160045260246000fdfea264697066735822122024f36ced729aa93614ae6ff95c12df2edcbbda44a6d72c48884a443f6a55ac6964736f6c634300081b0033",
  "linkReferences": {},
  "deployedLinkReferences": {}
}