{
  "_format": "hh-sol-artifact-1",
  "contractName": "Ballot",
  "sourceName": "contracts/Ballot.sol",
  "abi": [
    {
      "inputs": [
        {
          "internalType": "string[]",
          "name": "proposalNames",
          "type": "string[]"
        }
      ],
      "stateMutability": "nonpayable",
      "type": "constructor"
    },
    {
      "inputs": [],
      "name": "AlreadyVoted",
      "type": "error"
    },
    {
      "inputs": [],
      "name": "CannotDelegateToYourself",
      "type": "error"
    },
    {
      "inputs": [],
      "name": "HasNoRightToVote",
      "type": "error"
    },
    {
      "inputs": [],
      "name": "OnlyTheChairmanCanGiveTheAbilityToVote",
      "type": "error"
    },
    {
      "inputs": [],
      "name": "ProposalDoesNotExist",
      "type": "error"
    },
    {
      "inputs": [
        {
          "internalType": "address",
          "name": "voter",
          "type": "address"
        }
      ],
      "name": "abilityToVote",
      "outputs": [],
      "stateMutability": "nonpayable",
      "type": "function"
    },
    {
      "inputs": [],
      "name": "chairman",
      "outputs": [
        {
          "internalType": "address",
          "name": "",
          "type": "address"
        }
      ],
      "stateMutability": "view",
      "type": "function"
    },
    {
      "inputs": [
        {
          "internalType": "address",
          "name": "delegateAddress",
          "type": "address"
        }
      ],
      "name": "delegate",
      "outputs": [],
      "stateMutability": "nonpayable",
      "type": "function"
    },
    {
      "inputs": [
        {
          "internalType": "uint256",
          "name": "",
          "type": "uint256"
        }
      ],
      "name": "proposals",
      "outputs": [
        {
          "internalType": "string",
          "name": "name",
          "type": "string"
        },
        {
          "internalType": "uint256",
          "name": "voteCount",
          "type": "uint256"
        }
      ],
      "stateMutability": "view",
      "type": "function"
    },
    {
      "inputs": [
        {
          "internalType": "uint256",
          "name": "proposalIndex",
          "type": "uint256"
        }
      ],
      "name": "vote",
      "outputs": [],
      "stateMutability": "nonpayable",
      "type": "function"
    },
    {
      "inputs": [
        {
          "internalType": "address",
          "name": "",
          "type": "address"
        }
      ],
      "name": "voters",
      "outputs": [
        {
          "internalType": "bool",
          "name": "hasVoted",
          "type": "bool"
        },
        {
          "internalType": "address",
          "name": "delegate",
          "type": "address"
        },
        {
          "internalType": "uint256",
          "name": "weight",
          "type": "uint256"
        },
        {
          "internalType": "uint256",
          "name": "votedProposal",
          "type": "uint256"
        }
      ],
      "stateMutability": "view",
      "type": "function"
    },
    {
      "inputs": [],
      "name": "winnerProposalName",
      "outputs": [
        {
          "internalType": "string",
          "name": "winnerName",
          "type": "string"
        }
      ],
      "stateMutability": "view",
      "type": "function"
    },
    {
      "inputs": [],
      "name": "winningProposal",
      "outputs": [
        {
          "internalType": "uint256",
          "name": "winningProposalIndex",
          "type": "uint256"
        }
      ],
      "stateMutability": "view",
      "type": "function"
    }
  ],
  "bytecode": "0x608060405234801561001057600080fd5b50604051610bd5380380610bd583398101604081905261002f91610116565b600080546001600160a01b03191633908117825581526002602052604081206001908101555b81518110156100c9576001604051806040016040528084848151811061007d5761007d61025d565b602090810291909101810151825260009181018290528354600181018555938252902081519192600202019081906100b590826102fc565b506020919091015160019182015501610055565b50506103ba565b634e487b7160e01b600052604160045260246000fd5b604051601f8201601f191681016001600160401b038111828210171561010e5761010e6100d0565b604052919050565b60006020828403121561012857600080fd5b81516001600160401b0381111561013e57600080fd5b8201601f8101841361014f57600080fd5b80516001600160401b03811115610168576101686100d0565b8060051b610178602082016100e6565b9182526020818401810192908101908784111561019457600080fd5b6020850192505b838310156102525782516001600160401b038111156101b957600080fd5b8501603f810189136101ca57600080fd5b60208101516001600160401b038111156101e6576101e66100d0565b6101f9601f8201601f19166020016100e6565b8181526040838301018b101561020e57600080fd5b60005b828110156102315780840160400151602083830181019190915201610211565b5060006020838301015280855250505060208201915060208301925061019b565b979650505050505050565b634e487b7160e01b600052603260045260246000fd5b600181811c9082168061028757607f821691505b6020821081036102a757634e487b7160e01b600052602260045260246000fd5b50919050565b601f8211156102f757806000526020600020601f840160051c810160208510156102d45750805b601f840160051c820191505b818110156102f457600081556001016102e0565b50505b505050565b81516001600160401b03811115610315576103156100d0565b610329816103238454610273565b846102ad565b6020601f82116001811461035d57600083156103455750848201515b600019600385901b1c1916600184901b1784556102f4565b600084815260208120601f198516915b8281101561038d578785015182556020948501946001909201910161036d565b50848210156103ab5786840151600019600387901b60f8161c191681555b50505050600190811b01905550565b61080c806103c96000396000f3fe608060405234801561001057600080fd5b50600436106100885760003560e01c806374aeb9d31161005b57806374aeb9d3146100f557806387f7b97514610108578063a0f2c29114610133578063a3ec138d1461014857600080fd5b80630121b93f1461008d578063013cf08b146100a25780635c19a95c146100cc578063609ff1bd146100df575b600080fd5b6100a061009b36600461069b565b6101b5565b005b6100b56100b036600461069b565b610284565b6040516100c39291906106fa565b60405180910390f35b6100a06100da36600461071c565b610340565b6100e76104b0565b6040519081526020016100c3565b6100a061010336600461071c565b610523565b60005461011b906001600160a01b031681565b6040516001600160a01b0390911681526020016100c3565b61013b6105e0565b6040516100c3919061074c565b61018b61015636600461071c565b600260208190526000918252604090912080546001820154919092015460ff83169261010090046001600160a01b0316919084565b6040805194151585526001600160a01b0390931660208501529183015260608201526080016100c3565b336000908152600260205260409020805460ff16156101e757604051637c9a1cf960e01b815260040160405180910390fd5b600081600101541161020c57604051639a6d05dd60e01b815260040160405180910390fd5b600154821061022e57604051636ce3c70160e11b815260040160405180910390fd5b805460ff191660019081178255600282018390558181015481549091908490811061025b5761025b61075f565b9060005260206000209060020201600101600082825461027b9190610775565b90915550505050565b6001818154811061029457600080fd5b90600052602060002090600202016000915090508060000180546102b79061079c565b80601f01602080910402602001604051908101604052809291908181526020018280546102e39061079c565b80156103305780601f1061030557610100808354040283529160200191610330565b820191906000526020600020905b81548152906001019060200180831161031357829003601f168201915b5050505050908060010154905082565b336000908152600260205260409020805460ff161561037257604051637c9a1cf960e01b815260040160405180910390fd5b336001600160a01b0383160361039b5760405163d99eaebb60e01b815260040160405180910390fd5b6001600160a01b0382811660009081526002602052604090205461010090041615610408576001600160a01b039182166000908152600260205260409020546101009004909116903382036104035760405163d99eaebb60e01b815260040160405180910390fd5b61039b565b80546001600160a01b03831661010081026001600160a81b03199092169190911760011782556000908152600260205260409020805460ff161561048d57816001015460018260020154815481106104625761046261075f565b906000526020600020906002020160010160008282546104829190610775565b909155506104ab9050565b81600101548160010160008282546104a59190610775565b90915550505b505050565b600080805b60015481101561051e5781600182815481106104d3576104d361075f565b906000526020600020906002020160010154111561051657600181815481106104fe576104fe61075f565b90600052602060002090600202016001015491508092505b6001016104b5565b505090565b6000546001600160a01b0316331461054d5760405162a62f3b60e11b815260040160405180910390fd5b6001600160a01b03811660009081526002602052604090205460ff161561058757604051637c9a1cf960e01b815260040160405180910390fd5b6001600160a01b038116600090815260026020526040902060010154156105c157604051637c9a1cf960e01b815260040160405180910390fd5b6001600160a01b03166000908152600260205260409020600190810155565b606060016105ec6104b0565b815481106105fc576105fc61075f565b906000526020600020906002020160000180546106189061079c565b80601f01602080910402602001604051908101604052809291908181526020018280546106449061079c565b80156106915780601f1061066657610100808354040283529160200191610691565b820191906000526020600020905b81548152906001019060200180831161067457829003601f168201915b5050505050905090565b6000602082840312156106ad57600080fd5b5035919050565b6000815180845260005b818110156106da576020818501810151868301820152016106be565b506000602082860101526020601f19601f83011685010191505092915050565b60408152600061070d60408301856106b4565b90508260208301529392505050565b60006020828403121561072e57600080fd5b81356001600160a01b038116811461074557600080fd5b9392505050565b60208152600061074560208301846106b4565b634e487b7160e01b600052603260045260246000fd5b8082018082111561079657634e487b7160e01b600052601160045260246000fd5b92915050565b600181811c908216806107b057607f821691505b6020821081036107d057634e487b7160e01b600052602260045260246000fd5b5091905056fea2646970667358221220a971d63e6d8bd7ec5441bfb1daaebcfb8bbc414cb94a9a94560f665cc82c4c1064736f6c634300081b0033",
  "linkReferences": {},
  "deployedLinkReferences": {}
}